S0180000476363426F61726450726F6A656374312E737265630F
S113000033C0000044C0000042C0000040C00000F3
S11300103EC000003CC000003AC0000038C00000F0
S113002036C0000034C0000032C0000030C0000000
S11300302EC000002CC000002AC0000028C0000010
S113004026C0000024C0000022C0000020C0000020
S11300501EC000001CC000001AC0000018C0000030
S113006016C0000014C0000011241FBECFEFD8E05A
S1130070DEBFCDBF11E0A0E0B1E0ECEBF1E002C0E7
S113008005900D92AA30B107D9F75AD095C0B8CFD0
S1130090CF93DF93CDB7DEB72E970FB6F894DEBFBC
S11300A00FBECDBF9AE0E0E0F1E0DE0111960190D1
S11300B00D929A95E1F797E09B879BE09C879DE0E2
S11300C09D879EE09E87FE01E80FF11D87FDFA954E
S11300D0838588B9E1E0F0E0EC0FFD1FE60FF11D28
S11300E067FDFA9580818BB983EC99E00197F1F76C
S11300F000C000002E960FB6F894DEBF0FBECDBF31
S1130100DF91CF910895EF92FF921F93CF93DF93E6
S1130110C0E00F2EFAE0EF2EF12CF02DB70125D020
S1130120162FD72F682F8C2FB3DF812F9D2FCF5FF2
S1130130C430A1F7DF91CF911F91FF90EF90089504
S11301408FEF87B98AB900E010E0003187E2180721
S11301501CF40F5F1F4F02C000E010E0C9E1D0E0C3
S1130160C801D1DF2197E1F7F0CF97FB072E16F4F2
S1130170009406D077FD08D00BD007FC05D03EF4E0
S1130180909581959F4F0895709561957F4F08953F
S1130190AA1BBB1B51E107C0AA1FBB1FA617B707A9
S11301A010F0A61BB70B881F991F5A95A9F78095C5
S10F01B09095BC01CD010895F894FFCF98
S10D01BC3F065B4F666D7D077F6F01
S9030000FC
